{
  "_format": "hh-sol-artifact-1",
  "contractName": "FileStorage",
  "sourceName": "contracts/FileStorage.sol",
  "abi": [
    {
      "anonymous": false,
      "inputs": [
        {
          "indexed": false,
          "internalType": "string",
          "name": "fileHash",
          "type": "string"
        },
        {
          "indexed": false,
          "internalType": "uint256",
          "name": "timestamp",
          "type": "uint256"
        },
        {
          "indexed": false,
          "internalType": "address",
          "name": "owner",
          "type": "address"
        }
      ],
      "name": "FileUploaded",
      "type": "event"
    },
    {
      "inputs": [
        {
          "internalType": "string",
          "name": "",
          "type": "string"
        }
      ],
      "name": "files",
      "outputs": [
        {
          "internalType": "string",
          "name": "fileHash",
          "type": "string"
        },
        {
          "internalType": "uint256",
          "name": "timestamp",
          "type": "uint256"
        },
        {
          "internalType": "address",
          "name": "owner",
          "type": "address"
        }
      ],
      "stateMutability": "view",
      "type": "function"
    },
    {
      "inputs": [
        {
          "internalType": "string",
          "name": "_fileHash",
          "type": "string"
        }
      ],
      "name": "getFileOwner",
      "outputs": [
        {
          "internalType": "address",
          "name": "",
          "type": "address"
        }
      ],
      "stateMutability": "view",
      "type": "function"
    },
    {
      "inputs": [
        {
          "internalType": "string",
          "name": "_fileHash",
          "type": "string"
        }
      ],
      "name": "getFileTimestamp",
      "outputs": [
        {
          "internalType": "uint256",
          "name": "",
          "type": "uint256"
        }
      ],
      "stateMutability": "view",
      "type": "function"
    },
    {
      "inputs": [
        {
          "internalType": "address",
          "name": "_user",
          "type": "address"
        }
      ],
      "name": "getUserFiles",
      "outputs": [
        {
          "components": [
            {
              "internalType": "string",
              "name": "fileHash",
              "type": "string"
            },
            {
              "internalType": "uint256",
              "name": "timestamp",
              "type": "uint256"
            },
            {
              "internalType": "address",
              "name": "owner",
              "type": "address"
            }
          ],
          "internalType": "struct FileStorage.File[]",
          "name": "",
          "type": "tuple[]"
        }
      ],
      "stateMutability": "view",
      "type": "function"
    },
    {
      "inputs": [
        {
          "internalType": "string",
          "name": "_fileHash",
          "type": "string"
        }
      ],
      "name": "uploadFile",
      "outputs": [],
      "stateMutability": "nonpayable",
      "type": "function"
    },
    {
      "inputs": [
        {
          "internalType": "address",
          "name": "",
          "type": "address"
        },
        {
          "internalType": "uint256",
          "name": "",
          "type": "uint256"
        }
      ],
      "name": "userFiles",
      "outputs": [
        {
          "internalType": "string",
          "name": "fileHash",
          "type": "string"
        },
        {
          "internalType": "uint256",
          "name": "timestamp",
          "type": "uint256"
        },
        {
          "internalType": "address",
          "name": "owner",
          "type": "address"
        }
      ],
      "stateMutability": "view",
      "type": "function"
    }
  ],
  "bytecode": "0x608060405234801561001057600080fd5b50610fa8806100206000396000f3fe608060405234801561001057600080fd5b50600436106100625760003560e01c80631fc379221461006757806338fa8f5814610097578063718f38a6146100c7578063e37ffc30146100f9578063e775576114610115578063f985275e14610147575b600080fd5b610081600480360381019061007c9190610988565b610177565b60405161008e9190610c98565b60405180910390f35b6100b160048036038101906100ac91906109ed565b610307565b6040516100be9190610c7d565b60405180910390f35b6100e160048036038101906100dc91906109b1565b6103c1565b6040516100f093929190610cba565b60405180910390f35b610113600480360381019061010e91906109ed565b6104b0565b005b61012f600480360381019061012a91906109ed565b6106d1565b60405161013e93929190610cba565b60405180910390f35b610161600480360381019061015c91906109ed565b6107b9565b60405161016e9190610d38565b60405180910390f35b6060600160008373ffffffffffffffffffffffffffffffffffffffff1673ffffffffffffffffffffffffffffffffffffffff168152602001908152602001600020805480602002602001604051908101604052809291908181526020016000905b828210156102fc578382906000526020600020906003020160405180606001604052908160008201805461020b90610ea3565b80601f016020809104026020016040519081016040528092919081815260200182805461023790610ea3565b80156102845780601f1061025957610100808354040283529160200191610284565b820191906000526020600020905b81548152906001019060200180831161026757829003601f168201915b50505050508152602001600182015481526020016002820160009054906101000a900473ffffffffffffffffffffffffffffffffffffffff1673ffffffffffffffffffffffffffffffffffffffff1673ffffffffffffffffffffffffffffffffffffffff1681525050815260200190600101906101d8565b505050509050919050565b60008060008360405161031a9190610c66565b9081526020016040518091039020600001805461033690610ea3565b905011610378576040517f08c379a000000000000000000000000000000000000000000000000000000000815260040161036f90610cf8565b60405180910390fd5b6000826040516103889190610c66565b908152602001604051809103902060020160009054906101000a900473ffffffffffffffffffffffffffffffffffffffff169050919050565b600160205281600052604060002081815481106103dd57600080fd5b90600052602060002090600302016000915091505080600001805461040190610ea3565b80601f016020809104026020016040519081016040528092919081815260200182805461042d90610ea3565b801561047a5780601f1061044f5761010080835404028352916020019161047a565b820191906000526020600020905b81548152906001019060200180831161045d57829003601f168201915b5050505050908060010154908060020160009054906101000a900473ffffffffffffffffffffffffffffffffffffffff16905083565b60008151116104f4576040517f08c379a00000000000000000000000000000000000000000000000000000000081526004016104eb90610d18565b60405180910390fd5b600060405180606001604052808381526020014281526020013373ffffffffffffffffffffffffffffffffffffffff1681525090508060008360405161053a9190610c66565b90815260200160405180910390206000820151816000019080519060200190610564929190610853565b506020820151816001015560408201518160020160006101000a81548173ffffffffffffffffffffffffffffffffffffffff021916908373ffffffffffffffffffffffffffffffffffffffff160217905550905050600160003373ffffffffffffffffffffffffffffffffffffffff1673ffffffffffffffffffffffffffffffffffffffff168152602001908152602001600020819080600181540180825580915050600190039060005260206000209060030201600090919091909150600082015181600001908051906020019061063e929190610853565b506020820151816001015560408201518160020160006101000a81548173ffffffffffffffffffffffffffffffffffffffff021916908373ffffffffffffffffffffffffffffffffffffffff16021790555050507f787f9f72b4c348cf9330f605928c0e4a7ce2dc2c4fcfed70e3fa82d8b1dc84598242336040516106c593929190610cba565b60405180910390a15050565b60008180516020810182018051848252602083016020850120818352809550505050505060009150905080600001805461070a90610ea3565b80601f016020809104026020016040519081016040528092919081815260200182805461073690610ea3565b80156107835780601f1061075857610100808354040283529160200191610783565b820191906000526020600020905b81548152906001019060200180831161076657829003601f168201915b5050505050908060010154908060020160009054906101000a900473ffffffffffffffffffffffffffffffffffffffff16905083565b6000806000836040516107cc9190610c66565b908152602001604051809103902060000180546107e890610ea3565b90501161082a576040517f08c379a000000000000000000000000000000000000000000000000000000000815260040161082190610cf8565b60405180910390fd5b60008260405161083a9190610c66565b9081526020016040518091039020600101549050919050565b82805461085f90610ea3565b90600052602060002090601f01602090048101928261088157600085556108c8565b82601f1061089a57805160ff19168380011785556108c8565b828001600101855582156108c8579182015b828111156108c75782518255916020019190600101906108ac565b5b5090506108d591906108d9565b5090565b5b808211156108f25760008160009055506001016108da565b5090565b600061090961090484610d84565b610d53565b90508281526020810184848401111561092157600080fd5b61092c848285610e61565b509392505050565b60008135905061094381610f44565b92915050565b600082601f83011261095a57600080fd5b813561096a8482602086016108f6565b91505092915050565b60008135905061098281610f5b565b92915050565b60006020828403121561099a57600080fd5b60006109a884828501610934565b91505092915050565b600080604083850312156109c457600080fd5b60006109d285828601610934565b92505060206109e385828601610973565b9150509250929050565b6000602082840312156109ff57600080fd5b600082013567ffffffffffffffff811115610a1957600080fd5b610a2584828501610949565b91505092915050565b6000610a3a8383610bf8565b905092915050565b610a4b81610e25565b82525050565b610a5a81610e25565b82525050565b6000610a6b82610dc4565b610a758185610de7565b935083602082028501610a8785610db4565b8060005b85811015610ac35784840389528151610aa48582610a2e565b9450610aaf83610dda565b925060208a01995050600181019050610a8b565b50829750879550505050505092915050565b6000610ae082610dcf565b610aea8185610df8565b9350610afa818560208601610e70565b610b0381610f33565b840191505092915050565b6000610b1982610dcf565b610b238185610e09565b9350610b33818560208601610e70565b610b3c81610f33565b840191505092915050565b6000610b5282610dcf565b610b5c8185610e1a565b9350610b6c818560208601610e70565b80840191505092915050565b6000610b85601383610e09565b91507f46696c6520646f6573206e6f74206578697374000000000000000000000000006000830152602082019050919050565b6000610bc5601183610e09565b91507f496e76616c69642066696c6520686173680000000000000000000000000000006000830152602082019050919050565b60006060830160008301518482036000860152610c158282610ad5565b9150506020830151610c2a6020860182610c48565b506040830151610c3d6040860182610a42565b508091505092915050565b610c5181610e57565b82525050565b610c6081610e57565b82525050565b6000610c728284610b47565b915081905092915050565b6000602082019050610c926000830184610a51565b92915050565b60006020820190508181036000830152610cb28184610a60565b905092915050565b60006060820190508181036000830152610cd48186610b0e565b9050610ce36020830185610c57565b610cf06040830184610a51565b949350505050565b60006020820190508181036000830152610d1181610b78565b9050919050565b60006020820190508181036000830152610d3181610bb8565b9050919050565b6000602082019050610d4d6000830184610c57565b92915050565b6000604051905081810181811067ffffffffffffffff82111715610d7a57610d79610f04565b5b8060405250919050565b600067ffffffffffffffff821115610d9f57610d9e610f04565b5b601f19601f8301169050602081019050919050565b6000819050602082019050919050565b600081519050919050565b600081519050919050565b6000602082019050919050565b600082825260208201905092915050565b600082825260208201905092915050565b600082825260208201905092915050565b600081905092915050565b6000610e3082610e37565b9050919050565b600073ffffffffffffffffffffffffffffffffffffffff82169050919050565b6000819050919050565b82818337600083830152505050565b60005b83811015610e8e578082015181840152602081019050610e73565b83811115610e9d576000848401525b50505050565b60006002820490506001821680610ebb57607f821691505b60208210811415610ecf57610ece610ed5565b5b50919050565b7f4e487b7100000000000000000000000000000000000000000000000000000000600052602260045260246000fd5b7f4e487b7100000000000000000000000000000000000000000000000000000000600052604160045260246000fd5b6000601f19601f8301169050919050565b610f4d81610e25565b8114610f5857600080fd5b50565b610f6481610e57565b8114610f6f57600080fd5b5056fea26469706673582212200a907ef6072122741ae9c03c7483f5ea68621f5da3f00b6534dd1df76bedd7b464736f6c63430008000033",
  "linkReferences": {},
  "deployedLinkReferences": {}
}