{
  "_format": "hh-sol-artifact-1",
  "contractName": "FileStorage",
  "sourceName": "contracts/FileStorage.sol",
  "abi": [
    {
      "inputs": [],
      "stateMutability": "nonpayable",
      "type": "constructor"
    },
    {
      "anonymous": false,
      "inputs": [
        {
          "indexed": false,
          "internalType": "string",
          "name": "oldFileHash",
          "type": "string"
        },
        {
          "indexed": false,
          "internalType": "string",
          "name": "newFileHash",
          "type": "string"
        },
        {
          "indexed": false,
          "internalType": "string",
          "name": "field",
          "type": "string"
        },
        {
          "indexed": true,
          "internalType": "address",
          "name": "issuer",
          "type": "address"
        }
      ],
      "name": "CredentialFieldRevoked",
      "type": "event"
    },
    {
      "anonymous": false,
      "inputs": [
        {
          "indexed": false,
          "internalType": "string",
          "name": "fileHash",
          "type": "string"
        },
        {
          "indexed": true,
          "internalType": "address",
          "name": "issuer",
          "type": "address"
        }
      ],
      "name": "CredentialFullyRevoked",
      "type": "event"
    },
    {
      "anonymous": false,
      "inputs": [
        {
          "indexed": false,
          "internalType": "string",
          "name": "fileHash",
          "type": "string"
        },
        {
          "indexed": false,
          "internalType": "uint256",
          "name": "timestamp",
          "type": "uint256"
        },
        {
          "indexed": true,
          "internalType": "address",
          "name": "issuer",
          "type": "address"
        },
        {
          "indexed": true,
          "internalType": "address",
          "name": "receiver",
          "type": "address"
        }
      ],
      "name": "CredentialIssued",
      "type": "event"
    },
    {
      "anonymous": false,
      "inputs": [
        {
          "indexed": false,
          "internalType": "string",
          "name": "fileHash",
          "type": "string"
        },
        {
          "indexed": true,
          "internalType": "address",
          "name": "owner",
          "type": "address"
        }
      ],
      "name": "FileDeleted",
      "type": "event"
    },
    {
      "anonymous": false,
      "inputs": [
        {
          "indexed": false,
          "internalType": "string",
          "name": "fileHash",
          "type": "string"
        },
        {
          "indexed": false,
          "internalType": "uint256",
          "name": "timestamp",
          "type": "uint256"
        },
        {
          "indexed": true,
          "internalType": "address",
          "name": "owner",
          "type": "address"
        }
      ],
      "name": "FileUploaded",
      "type": "event"
    },
    {
      "anonymous": false,
      "inputs": [
        {
          "indexed": true,
          "internalType": "address",
          "name": "issuer",
          "type": "address"
        }
      ],
      "name": "IssuerRegistered",
      "type": "event"
    },
    {
      "inputs": [
        {
          "internalType": "string",
          "name": "_fileHash",
          "type": "string"
        }
      ],
      "name": "deleteFile",
      "outputs": [],
      "stateMutability": "nonpayable",
      "type": "function"
    },
    {
      "inputs": [
        {
          "internalType": "string",
          "name": "_fileHash",
          "type": "string"
        }
      ],
      "name": "fileExists",
      "outputs": [
        {
          "internalType": "bool",
          "name": "",
          "type": "bool"
        }
      ],
      "stateMutability": "view",
      "type": "function"
    },
    {
      "inputs": [
        {
          "internalType": "string",
          "name": "_fileHash",
          "type": "string"
        },
        {
          "internalType": "string[]",
          "name": "_fieldsToShare",
          "type": "string[]"
        }
      ],
      "name": "getCredentialDetails",
      "outputs": [
        {
          "internalType": "string",
          "name": "fileHash",
          "type": "string"
        },
        {
          "internalType": "address",
          "name": "issuer",
          "type": "address"
        },
        {
          "internalType": "address",
          "name": "receiver",
          "type": "address"
        },
        {
          "internalType": "uint256",
          "name": "timestamp",
          "type": "uint256"
        },
        {
          "internalType": "string",
          "name": "sharedMetadata",
          "type": "string"
        }
      ],
      "stateMutability": "view",
      "type": "function"
    },
    {
      "inputs": [],
      "name": "getFileCount",
      "outputs": [
        {
          "internalType": "uint256",
          "name": "",
          "type": "uint256"
        }
      ],
      "stateMutability": "view",
      "type": "function"
    },
    {
      "inputs": [
        {
          "internalType": "string",
          "name": "_fileHash",
          "type": "string"
        }
      ],
      "name": "getFileIssuer",
      "outputs": [
        {
          "internalType": "address",
          "name": "",
          "type": "address"
        }
      ],
      "stateMutability": "view",
      "type": "function"
    },
    {
      "inputs": [
        {
          "internalType": "string",
          "name": "_fileHash",
          "type": "string"
        }
      ],
      "name": "getFileTimestamp",
      "outputs": [
        {
          "internalType": "uint256",
          "name": "",
          "type": "uint256"
        }
      ],
      "stateMutability": "view",
      "type": "function"
    },
    {
      "inputs": [
        {
          "internalType": "address",
          "name": "_issuer",
          "type": "address"
        }
      ],
      "name": "getIssuedCredentials",
      "outputs": [
        {
          "internalType": "string[]",
          "name": "",
          "type": "string[]"
        }
      ],
      "stateMutability": "view",
      "type": "function"
    },
    {
      "inputs": [
        {
          "internalType": "string",
          "name": "_fileHash",
          "type": "string"
        }
      ],
      "name": "getMandatoryFields",
      "outputs": [
        {
          "internalType": "string",
          "name": "",
          "type": "string"
        }
      ],
      "stateMutability": "view",
      "type": "function"
    },
    {
      "inputs": [
        {
          "internalType": "string",
          "name": "_fileHash",
          "type": "string"
        }
      ],
      "name": "getRevokedFields",
      "outputs": [
        {
          "internalType": "string[]",
          "name": "",
          "type": "string[]"
        }
      ],
      "stateMutability": "view",
      "type": "function"
    },
    {
      "inputs": [
        {
          "internalType": "address",
          "name": "_user",
          "type": "address"
        }
      ],
      "name": "getUserFiles",
      "outputs": [
        {
          "internalType": "string[]",
          "name": "",
          "type": "string[]"
        }
      ],
      "stateMutability": "view",
      "type": "function"
    },
    {
      "inputs": [
        {
          "internalType": "string",
          "name": "_fileHash",
          "type": "string"
        },
        {
          "internalType": "address",
          "name": "_receiver",
          "type": "address"
        },
        {
          "internalType": "string",
          "name": "_metadata",
          "type": "string"
        },
        {
          "internalType": "string",
          "name": "_mandatoryFields",
          "type": "string"
        }
      ],
      "name": "issueCredential",
      "outputs": [],
      "stateMutability": "nonpayable",
      "type": "function"
    },
    {
      "inputs": [],
      "name": "owner",
      "outputs": [
        {
          "internalType": "address",
          "name": "",
          "type": "address"
        }
      ],
      "stateMutability": "view",
      "type": "function"
    },
    {
      "inputs": [
        {
          "internalType": "address",
          "name": "_issuer",
          "type": "address"
        }
      ],
      "name": "registerIssuer",
      "outputs": [],
      "stateMutability": "nonpayable",
      "type": "function"
    },
    {
      "inputs": [
        {
          "internalType": "string",
          "name": "_fileHash",
          "type": "string"
        }
      ],
      "name": "revokeCredential",
      "outputs": [],
      "stateMutability": "nonpayable",
      "type": "function"
    },
    {
      "inputs": [
        {
          "internalType": "string",
          "name": "_oldFileHash",
          "type": "string"
        },
        {
          "internalType": "string",
          "name": "_newFileHash",
          "type": "string"
        },
        {
          "internalType": "string",
          "name": "_field",
          "type": "string"
        },
        {
          "internalType": "string",
          "name": "_updatedMetadata",
          "type": "string"
        }
      ],
      "name": "revokeCredentialField",
      "outputs": [],
      "stateMutability": "nonpayable",
      "type": "function"
    },
    {
      "inputs": [
        {
          "internalType": "string",
          "name": "_fileHash",
          "type": "string"
        }
      ],
      "name": "uploadFile",
      "outputs": [],
      "stateMutability": "nonpayable",
      "type": "function"
    },
    {
      "inputs": [
        {
          "internalType": "string",
          "name": "_fileHash",
          "type": "string"
        }
      ],
      "name": "verifyCredential",
      "outputs": [
        {
          "internalType": "bool",
          "name": "isValid",
          "type": "bool"
        },
        {
          "internalType": "address",
          "name": "issuer",
          "type": "address"
        },
        {
          "internalType": "address",
          "name": "receiver",
          "type": "address"
        },
        {
          "internalType": "string",
          "name": "metadata",
          "type": "string"
        }
      ],
      "stateMutability": "view",
      "type": "function"
    }
  ],
  "bytecode": "0x608060405234801561001057600080fd5b5033600460006101000a81548173ffffffffffffffffffffffffffffffffffffffff021916908373ffffffffffffffffffffffffffffffffffffffff1602179055506001600360003373ffffffffffffffffffffffffffffffffffffffff1673ffffffffffffffffffffffffffffffffffffffff16815260200190815260200160002060006101000a81548160ff0219169083151502179055503373ffffffffffffffffffffffffffffffffffffffff167ffde169c7a1e7ae65e55d12565b943b41f7a7d8c676099b34a09205e5693dd9e560405160405180910390a2614f0b806100fc6000396000f3fe608060405234801561001057600080fd5b506004361061010b5760003560e01c8063a9910054116100a2578063e37ffc3011610071578063e37ffc30146102cf578063f8370794146102eb578063f985275e1461031b578063fb0baae11461034b578063ff2a9af91461037b5761010b565b8063a991005414610246578063bab50cc914610262578063bb3670ab14610280578063be727fb2146102b35761010b565b80637323555f116100de5780637323555f146101a85780638da5cb5b146101c45780639bccd6ad146101e25780639ea3e1b6146102125761010b565b8063060a9411146101105780631fc379221461012c5780634ea100551461015c5780635e9a2d281461018c575b600080fd5b61012a60048036038101906101259190613cba565b6103ab565b005b61014660048036038101906101419190613b39565b610cad565b6040516101539190614725565b60405180910390f35b61017660048036038101906101719190613b62565b6110dd565b604051610183919061470a565b60405180910390f35b6101a660048036038101906101a19190613b62565b6111d1565b005b6101c260048036038101906101bd9190613b39565b611423565b005b6101cc61164e565b6040516101d9919061470a565b60405180910390f35b6101fc60048036038101906101f79190613b62565b611674565b6040516102099190614747565b60405180910390f35b61022c60048036038101906102279190613c4e565b61172a565b60405161023d9594939291906147d0565b60405180910390f35b610260600480360381019061025b9190613b62565b611fa5565b005b61026a61235a565b6040516102779190614b4d565b60405180910390f35b61029a60048036038101906102959190613b62565b61253b565b6040516102aa9493929190614762565b60405180910390f35b6102cd60048036038101906102c89190613ba3565b6126e0565b005b6102e960048036038101906102e49190613b62565b612b3d565b005b61030560048036038101906103009190613b62565b612e1a565b60405161031291906147ae565b60405180910390f35b61033560048036038101906103309190613b62565b612fb8565b6040516103429190614b4d565b60405180910390f35b61036560048036038101906103609190613b62565b61308c565b6040516103729190614725565b60405180910390f35b61039560048036038101906103909190613b39565b613271565b6040516103a29190614725565b60405180910390f35b600360003373ffffffffffffffffffffffffffffffffffffffff1673ffffffffffffffffffffffffffffffffffffffff16815260200190815260200160002060009054906101000a900460ff16610437576040517f08c379a000000000000000000000000000000000000000000000000000000000815260040161042e90614aed565b60405180910390fd5b6000808560405161044891906146dc565b908152602001604051809103902090503373ffffffffffffffffffffffffffffffffffffffff168160020160009054906101000a900473ffffffffffffffffffffffffffffffffffffffff1673ffffffffffffffffffffffffffffffffffffffff16146104ea576040517f08c379a00000000000000000000000000000000000000000000000000000000081526004016104e1906149ed565b60405180910390fd5b8060030160149054906101000a900460ff161561053c576040517f08c379a000000000000000000000000000000000000000000000000000000000815260040161053390614acd565b60405180910390fd5b8060060160009054906101000a900460ff161561058e576040517f08c379a00000000000000000000000000000000000000000000000000000000081526004016105859061492d565b60405180910390fd5b80600401836040516105a091906146dc565b908152602001604051809103902060009054906101000a900460ff16156105fc576040517f08c379a00000000000000000000000000000000000000000000000000000000081526004016105f39061498d565b60405180910390fd5b6000845111610640576040517f08c379a000000000000000000000000000000000000000000000000000000000815260040161063790614b0d565b60405180910390fd5b6000825111610684576040517f08c379a000000000000000000000000000000000000000000000000000000000815260040161067b90614a4d565b60405180910390fd5b6000808560405161069591906146dc565b90815260200160405180910390209050848160000190805190602001906106bd929190613880565b504281600101819055508160020160009054906101000a900473ffffffffffffffffffffffffffffffffffffffff168160020160006101000a81548173ffffffffffffffffffffffffffffffffffffffff021916908373ffffffffffffffffffffffffffffffffffffffff1602179055508160030160009054906101000a900473ffffffffffffffffffffffffffffffffffffffff168160030160006101000a81548173ffffffffffffffffffffffffffffffffffffffff021916908373ffffffffffffffffffffffffffffffffffffffff16021790555060008160030160146101000a81548160ff02191690831515021790555060008160060160006101000a81548160ff021916908315150217905550828160070190805190602001906107e7929190613880565b5081600801816008019080546107fc90614da5565b610807929190613906565b5060005b82600501805490508110156109325760018260040184600501838154811061085c577f4e487b7100000000000000000000000000000000000000000000000000000000600052603260045260246000fd5b9060005260206000200160405161087391906146f3565b908152602001604051809103902060006101000a81548160ff021916908315150217905550816005018360050182815481106108d8577f4e487b7100000000000000000000000000000000000000000000000000000000600052603260045260246000fd5b906000526020600020019080600181540180825580915050600190039060005260206000200160009091909190915090805461091390614da5565b61091e929190613906565b50808061092a90614dd7565b91505061080b565b506001816004018560405161094791906146dc565b908152602001604051809103902060006101000a81548160ff02191690831515021790555080600501849080600181540180825580915050600190039060005260206000200160009091909190915090805190602001906109a9929190613880565b50600160008360030160009054906101000a900473ffffffffffffffffffffffffffffffffffffffff1673ffffffffffffffffffffffffffffffffffffffff1673ffffffffffffffffffffffffffffffffffffffff16815260200190815260200160002085908060018154018082558091505060019003906000526020600020016000909190919091509080519060200190610a46929190613880565b50600260003373ffffffffffffffffffffffffffffffffffffffff1673ffffffffffffffffffffffffffffffffffffffff16815260200190815260200160002085908060018154018082558091505060019003906000526020600020016000909190919091509080519060200190610abf929190613880565b50600086604051610ad091906146dc565b908152602001604051809103902060008082016000610aef9190613993565b60018201600090556002820160006101000a81549073ffffffffffffffffffffffffffffffffffffffff02191690556003820160006101000a81549073ffffffffffffffffffffffffffffffffffffffff02191690556003820160146101000a81549060ff0219169055600582016000610b6991906139d3565b6006820160006101000a81549060ff0219169055600782016000610b8d9190613993565b600882016000610b9d9190613993565b5050610c0b600160008460030160009054906101000a900473ffffffffffffffffffffffffffffffffffffffff1673ffffffffffffffffffffffffffffffffffffffff1673ffffffffffffffffffffffffffffffffffffffff168152602001908152602001600020876136a1565b610c53600260003373ffffffffffffffffffffffffffffffffffffffff1673ffffffffffffffffffffffffffffffffffffffff168152602001908152602001600020876136a1565b3373ffffffffffffffffffffffffffffffffffffffff167f3b6f790d76809c9c7353d05e1ad8e8bd178df15c548f508df3cdb2bda3fc81fe878787604051610c9d93929190614831565b60405180910390a2505050505050565b60606000600160008473ffffffffffffffffffffffffffffffffffffffff1673ffffffffffffffffffffffffffffffffffffffff168152602001908152602001600020805480602002602001604051908101604052809291908181526020016000905b82821015610dbc578382906000526020600020018054610d2f90614da5565b80601f0160208091040260200160405190810160405280929190818152602001828054610d5b90614da5565b8015610da85780601f10610d7d57610100808354040283529160200191610da8565b820191906000526020600020905b815481529060010190602001808311610d8b57829003601f168201915b505050505081526020019060010190610d10565b505050509050600081511415610e4957600067ffffffffffffffff811115610e0d577f4e487b7100000000000000000000000000000000000000000000000000000000600052604160045260246000fd5b604051908082528060200260200182016040528015610e4057816020015b6060815260200190600190039081610e2b5790505b509150506110d8565b6000805b8251811015610f0d57600080848381518110610e92577f4e487b7100000000000000000000000000000000000000000000000000000000600052603260045260246000fd5b6020026020010151604051610ea791906146dc565b908152602001604051809103902090508060030160149054906101000a900460ff16158015610ee557508060060160009054906101000a900460ff16155b15610ef9578280610ef590614dd7565b9350505b508080610f0590614dd7565b915050610e4d565b5060008167ffffffffffffffff811115610f50577f4e487b7100000000000000000000000000000000000000000000000000000000600052604160045260246000fd5b604051908082528060200260200182016040528015610f8357816020015b6060815260200190600190039081610f6e5790505b5090506000805b84518110156110cf57600080868381518110610fcf577f4e487b7100000000000000000000000000000000000000000000000000000000600052603260045260246000fd5b6020026020010151604051610fe491906146dc565b908152602001604051809103902090508060030160149054906101000a900460ff1615801561102257508060060160009054906101000a900460ff16155b156110bb57858281518110611060577f4e487b7100000000000000000000000000000000000000000000000000000000600052603260045260246000fd5b60200260200101518484815181106110a1577f4e487b7100000000000000000000000000000000000000000000000000000000600052603260045260246000fd5b602002602001018190525082806110b790614dd7565b9350505b5080806110c790614dd7565b915050610f8a565b50819450505050505b919050565b6000806000836040516110f091906146dc565b908152602001604051809103902090508060030160149054906101000a900460ff1615611152576040517f08c379a000000000000000000000000000000000000000000000000000000000815260040161114990614a2d565b60405180910390fd5b8060060160009054906101000a900460ff16156111a4576040517f08c379a000000000000000000000000000000000000000000000000000000000815260040161119b90614b2d565b60405180910390fd5b8060020160009054906101000a900473ffffffffffffffffffffffffffffffffffffffff16915050919050565b600360003373ffffffffffffffffffffffffffffffffffffffff1673ffffffffffffffffffffffffffffffffffffffff16815260200190815260200160002060009054906101000a900460ff1661125d576040517f08c379a000000000000000000000000000000000000000000000000000000000815260040161125490614aed565b60405180910390fd5b6000808260405161126e91906146dc565b908152602001604051809103902090503373ffffffffffffffffffffffffffffffffffffffff168160020160009054906101000a900473ffffffffffffffffffffffffffffffffffffffff1673ffffffffffffffffffffffffffffffffffffffff1614611310576040517f08c379a0000000000000000000000000000000000000000000000000000000008152600401611307906149ed565b60405180910390fd5b8060060160009054906101000a900460ff1615611362576040517f08c379a0000000000000000000000000000000000000000000000000000000008152600401611359906148ad565b60405180910390fd5b8060030160149054906101000a900460ff16156113b4576040517f08c379a00000000000000000000000000000000000000000000000000000000081526004016113ab90614acd565b60405180910390fd5b60018160060160006101000a81548160ff0219169083151502179055503373ffffffffffffffffffffffffffffffffffffffff167f1ed88e38125f372474e19386154cbb9747bd437210b29540eab537075ef7e6828360405161141791906147ae565b60405180910390a25050565b600460009054906101000a900473ffffffffffffffffffffffffffffffffffffffff1673ffffffffffffffffffffffffffffffffffffffff163373ffffffffffffffffffffffffffffffffffffffff16146114b3576040517f08c379a00000000000000000000000000000000000000000000000000000000081526004016114aa90614a0d565b60405180910390fd5b600073ffffffffffffffffffffffffffffffffffffffff168173ffffffffffffffffffffffffffffffffffffffff161415611523576040517f08c379a000000000000000000000000000000000000000000000000000000000815260040161151a90614a6d565b60405180910390fd5b600360008273ffffffffffffffffffffffffffffffffffffffff1673ffffffffffffffffffffffffffffffffffffffff16815260200190815260200160002060009054906101000a900460ff16156115b0576040517f08c379a00000000000000000000000000000000000000000000000000000000081526004016115a7906148cd565b60405180910390fd5b6001600360008373ffffffffffffffffffffffffffffffffffffffff1673ffffffffffffffffffffffffffffffffffffffff16815260200190815260200160002060006101000a81548160ff0219169083151502179055508073ffffffffffffffffffffffffffffffffffffffff167ffde169c7a1e7ae65e55d12565b943b41f7a7d8c676099b34a09205e5693dd9e560405160405180910390a250565b600460009054906101000a900473ffffffffffffffffffffffffffffffffffffffff1681565b60008060008360405161168791906146dc565b90815260200160405180910390209050600073ffffffffffffffffffffffffffffffffffffffff168160020160009054906101000a900473ffffffffffffffffffffffffffffffffffffffff1673ffffffffffffffffffffffffffffffffffffffff161415801561170757508060030160149054906101000a900460ff16155b801561172257508060060160009054906101000a900460ff16155b915050919050565b6060600080600060606000808860405161174491906146dc565b90815260200160405180910390209050600073ffffffffffffffffffffffffffffffffffffffff168160020160009054906101000a900473ffffffffffffffffffffffffffffffffffffffff1673ffffffffffffffffffffffffffffffffffffffff1614156117e8576040517f08c379a00000000000000000000000000000000000000000000000000000000081526004016117df9061490d565b60405180910390fd5b8060030160149054906101000a900460ff161561183a576040517f08c379a000000000000000000000000000000000000000000000000000000000815260040161183190614a2d565b60405180910390fd5b80600001805461184990614da5565b80601f016020809104026020016040519081016040528092919081815260200182805461187590614da5565b80156118c25780601f10611897576101008083540402835291602001916118c2565b820191906000526020600020905b8154815290600101906020018083116118a557829003601f168201915b505050505095508060020160009054906101000a900473ffffffffffffffffffffffffffffffffffffffff1694508060030160009054906101000a900473ffffffffffffffffffffffffffffffffffffffff169350806001015492508060030160009054906101000a900473ffffffffffffffffffffffffffffffffffffffff1673ffffffffffffffffffffffffffffffffffffffff163373ffffffffffffffffffffffffffffffffffffffff161461198c57604051806020016040528060008152509150611f9a565b600081600801805461199d90614da5565b80601f01602080910402602001604051908101604052809291908181526020018280546119c990614da5565b8015611a165780601f106119eb57610100808354040283529160200191611a16565b820191906000526020600020905b8154815290600101906020018083116119f957829003601f168201915b505050505090506000819050600081511115611f07576000600267ffffffffffffffff811115611a6f577f4e487b7100000000000000000000000000000000000000000000000000000000600052604160045260246000fd5b604051908082528060200260200182016040528015611aa257816020015b6060815260200190600190039081611a8d5790505b5090506040518060400160405280600481526020017f6e616d650000000000000000000000000000000000000000000000000000000081525081600081518110611b15577f4e487b7100000000000000000000000000000000000000000000000000000000600052603260045260246000fd5b60200260200101819052506040518060400160405280600481526020017f747970650000000000000000000000000000000000000000000000000000000081525081600181518110611b90577f4e487b7100000000000000000000000000000000000000000000000000000000600052603260045260246000fd5b6020026020010181905250600081518b51611bab9190614c91565b67ffffffffffffffff811115611bea577f4e487b7100000000000000000000000000000000000000000000000000000000600052604160045260246000fd5b604051908082528060200260200182016040528015611c1d57816020015b6060815260200190600190039081611c085790505b50905060005b8b51811015611cc4578b8181518110611c65577f4e487b7100000000000000000000000000000000000000000000000000000000600052603260045260246000fd5b6020026020010151828281518110611ca6577f4e487b7100000000000000000000000000000000000000000000000000000000600052603260045260246000fd5b60200260200101819052508080611cbc90614dd7565b915050611c23565b5060005b8251811015611d7557828181518110611d0a577f4e487b7100000000000000000000000000000000000000000000000000000000600052603260045260246000fd5b602002602001015182828e51611d209190614c91565b81518110611d57577f4e487b7100000000000000000000000000000000000000000000000000000000600052603260045260246000fd5b60200260200101819052508080611d6d90614dd7565b915050611cc8565b5060006040518060400160405280600181526020017f7b00000000000000000000000000000000000000000000000000000000000000815250905060006001905060005b8351811015611ed85787600401848281518110611dff577f4e487b7100000000000000000000000000000000000000000000000000000000600052603260045260246000fd5b6020026020010151604051611e1491906146dc565b908152602001604051809103902060009054906101000a900460ff16611ec55781611e5c5782604051602001611e4a919061465e565b60405160208183030381529060405292505b82848281518110611e96577f4e487b7100000000000000000000000000000000000000000000000000000000600052603260045260246000fd5b6020026020010151604051602001611eaf929190614680565b6040516020818303038152906040529250600091505b8080611ed090614dd7565b915050611db9565b5081604051602001611eea91906146ba565b604051602081830303815290604052915081975050505050611f97565b826007018054611f1690614da5565b80601f0160208091040260200160405190810160405280929190818152602001828054611f4290614da5565b8015611f8f5780601f10611f6457610100808354040283529160200191611f8f565b820191906000526020600020905b815481529060010190602001808311611f7257829003601f168201915b505050505093505b50505b509295509295909350565b60008082604051611fb691906146dc565b908152602001604051809103902090503373ffffffffffffffffffffffffffffffffffffffff168160030160009054906101000a900473ffffffffffffffffffffffffffffffffffffffff1673ffffffffffffffffffffffffffffffffffffffff1614612058576040517f08c379a000000000000000000000000000000000000000000000000000000000815260040161204f90614a8d565b60405180910390fd5b8060030160149054906101000a900460ff16156120aa576040517f08c379a00000000000000000000000000000000000000000000000000000000081526004016120a1906149cd565b60405180910390fd5b60018160030160146101000a81548160ff0219169083151502179055506000600160003373ffffffffffffffffffffffffffffffffffffffff1673ffffffffffffffffffffffffffffffffffffffff168152602001908152602001600020905060005b818054905081101561231b578360405160200161212a91906146dc565b60405160208183030381529060405280519060200120828281548110612179577f4e487b7100000000000000000000000000000000000000000000000000000000600052603260045260246000fd5b9060005260206000200160405160200161219391906146f3565b6040516020818303038152906040528051906020012014156123085781600183805490506121c19190614ce7565b815481106121f8577f4e487b7100000000000000000000000000000000000000000000000000000000600052603260045260246000fd5b9060005260206000200182828154811061223b577f4e487b7100000000000000000000000000000000000000000000000000000000600052603260045260246000fd5b9060005260206000200190805461225190614da5565b61225c929190613906565b5081805480612294577f4e487b7100000000000000000000000000000000000000000000000000000000600052603160045260246000fd5b6001900381819060005260206000200160006122b09190613993565b90553373ffffffffffffffffffffffffffffffffffffffff167fb7f404dbaa1b2ab0528fd20ea00c12bcd6d8d8e57a5e63af5710d9031e62ef1f856040516122f891906147ae565b60405180910390a2505050612357565b808061231390614dd7565b91505061210d565b506040517f08c379a000000000000000000000000000000000000000000000000000000000815260040161234e9061496d565b60405180910390fd5b50565b600080600160003373ffffffffffffffffffffffffffffffffffffffff1673ffffffffffffffffffffffffffffffffffffffff168152602001908152602001600020805480602002602001604051908101604052809291908181526020016000905b828210156124685783829060005260206000200180546123db90614da5565b80601f016020809104026020016040519081016040528092919081815260200182805461240790614da5565b80156124545780601f1061242957610100808354040283529160200191612454565b820191906000526020600020905b81548152906001019060200180831161243757829003601f168201915b5050505050815260200190600101906123bc565b5050505090506000805b8251811015612532576000808483815181106124b7577f4e487b7100000000000000000000000000000000000000000000000000000000600052603260045260246000fd5b60200260200101516040516124cc91906146dc565b908152602001604051809103902090508060030160149054906101000a900460ff1615801561250a57508060060160009054906101000a900460ff16155b1561251e57828061251a90614dd7565b9350505b50808061252a90614dd7565b915050612472565b50809250505090565b600080600060606000808660405161255391906146dc565b9081526020016040518091039020905060008073ffffffffffffffffffffffffffffffffffffffff168260020160009054906101000a900473ffffffffffffffffffffffffffffffffffffffff1673ffffffffffffffffffffffffffffffffffffffff16141590508080156125d757508160030160149054906101000a900460ff16155b80156125f257508160060160009054906101000a900460ff16155b9550858260020160009054906101000a900473ffffffffffffffffffffffffffffffffffffffff168360030160009054906101000a900473ffffffffffffffffffffffffffffffffffffffff168460070180805461264f90614da5565b80601f016020809104026020016040519081016040528092919081815260200182805461267b90614da5565b80156126c85780601f1061269d576101008083540402835291602001916126c8565b820191906000526020600020905b8154815290600101906020018083116126ab57829003601f168201915b50505050509050955095509550955050509193509193565b600360003373ffffffffffffffffffffffffffffffffffffffff1673ffffffffffffffffffffffffffffffffffffffff16815260200190815260200160002060009054906101000a900460ff1661276c576040517f08c379a000000000000000000000000000000000000000000000000000000000815260040161276390614aed565b60405180910390fd5b60008451116127b0576040517f08c379a00000000000000000000000000000000000000000000000000000000081526004016127a790614aad565b60405180910390fd5b600073ffffffffffffffffffffffffffffffffffffffff168373ffffffffffffffffffffffffffffffffffffffff161415612820576040517f08c379a0000000000000000000000000000000000000000000000000000000008152600401612817906149ad565b60405180910390fd5b6000825111612864576040517f08c379a000000000000000000000000000000000000000000000000000000000815260040161285b906148ed565b60405180910390fd5b60008151116128a8576040517f08c379a000000000000000000000000000000000000000000000000000000000815260040161289f9061494d565b60405180910390fd5b600080856040516128b991906146dc565b90815260200160405180910390209050848160000190805190602001906128e1929190613880565b50428160010181905550338160020160006101000a81548173ffffffffffffffffffffffffffffffffffffffff021916908373ffffffffffffffffffffffffffffffffffffffff160217905550838160030160006101000a81548173ffffffffffffffffffffffffffffffffffffffff021916908373ffffffffffffffffffffffffffffffffffffffff16021790555060008160030160146101000a81548160ff02191690831515021790555060008160060160006101000a81548160ff021916908315150217905550828160070190805190602001906129c3929190613880565b50818160080190805190602001906129dc929190613880565b50600160008573ffffffffffffffffffffffffffffffffffffffff1673ffffffffffffffffffffffffffffffffffffffff16815260200190815260200160002085908060018154018082558091505060019003906000526020600020016000909190919091509080519060200190612a55929190613880565b50600260003373ffffffffffffffffffffffffffffffffffffffff1673ffffffffffffffffffffffffffffffffffffffff16815260200190815260200160002085908060018154018082558091505060019003906000526020600020016000909190919091509080519060200190612ace929190613880565b508373ffffffffffffffffffffffffffffffffffffffff163373ffffffffffffffffffffffffffffffffffffffff167f4c7cc94cf562cdb4d86d20c7eb2214dcf7a6f6f502846bc47af46d94a18ac3cf8742604051612b2e92919061487d565b60405180910390a35050505050565b6000815111612b81576040517f08c379a0000000000000000000000000000000000000000000000000000000008152600401612b7890614aad565b60405180910390fd5b60008082604051612b9291906146dc565b9081526020016040518091039020905081816000019080519060200190612bba929190613880565b50428160010181905550338160020160006101000a81548173ffffffffffffffffffffffffffffffffffffffff021916908373ffffffffffffffffffffffffffffffffffffffff160217905550338160030160006101000a81548173ffffffffffffffffffffffffffffffffffffffff021916908373ffffffffffffffffffffffffffffffffffffffff16021790555060008160030160146101000a81548160ff02191690831515021790555060008160060160006101000a81548160ff02191690831515021790555060405180602001604052806000815250816007019080519060200190612cab929190613880565b5060405180602001604052806000815250816008019080519060200190612cd3929190613880565b50600160003373ffffffffffffffffffffffffffffffffffffffff1673ffffffffffffffffffffffffffffffffffffffff16815260200190815260200160002082908060018154018082558091505060019003906000526020600020016000909190919091509080519060200190612d4c929190613880565b50600260003373ffffffffffffffffffffffffffffffffffffffff1673ffffffffffffffffffffffffffffffffffffffff16815260200190815260200160002082908060018154018082558091505060019003906000526020600020016000909190919091509080519060200190612dc5929190613880565b503373ffffffffffffffffffffffffffffffffffffffff167f787f9f72b4c348cf9330f605928c0e4a7ce2dc2c4fcfed70e3fa82d8b1dc84598342604051612e0e92919061487d565b60405180910390a25050565b606060008083604051612e2d91906146dc565b90815260200160405180910390209050600073ffffffffffffffffffffffffffffffffffffffff168160020160009054906101000a900473ffffffffffffffffffffffffffffffffffffffff1673ffffffffffffffffffffffffffffffffffffffff161415612ed1576040517f08c379a0000000000000000000000000000000000000000000000000000000008152600401612ec89061490d565b60405180910390fd5b8060030160149054906101000a900460ff1615612f23576040517f08c379a0000000000000000000000000000000000000000000000000000000008152600401612f1a90614a2d565b60405180910390fd5b806008018054612f3290614da5565b80601f0160208091040260200160405190810160405280929190818152602001828054612f5e90614da5565b8015612fab5780601f10612f8057610100808354040283529160200191612fab565b820191906000526020600020905b815481529060010190602001808311612f8e57829003601f168201915b5050505050915050919050565b600080600083604051612fcb91906146dc565b908152602001604051809103902090508060030160149054906101000a900460ff161561302d576040517f08c379a000000000000000000000000000000000000000000000000000000000815260040161302490614a2d565b60405180910390fd5b8060060160009054906101000a900460ff161561307f576040517f08c379a000000000000000000000000000000000000000000000000000000000815260040161307690614b2d565b60405180910390fd5b8060010154915050919050565b60606000808360405161309f91906146dc565b90815260200160405180910390209050600073ffffffffffffffffffffffffffffffffffffffff168160020160009054906101000a900473ffffffffffffffffffffffffffffffffffffffff1673ffffffffffffffffffffffffffffffffffffffff161415613143576040517f08c379a000000000000000000000000000000000000000000000000000000000815260040161313a9061490d565b60405180910390fd5b8060030160149054906101000a900460ff1615613195576040517f08c379a000000000000000000000000000000000000000000000000000000000815260040161318c90614a2d565b60405180910390fd5b80600501805480602002602001604051908101604052809291908181526020016000905b828210156132655783829060005260206000200180546131d890614da5565b80601f016020809104026020016040519081016040528092919081815260200182805461320490614da5565b80156132515780601f1061322657610100808354040283529160200191613251565b820191906000526020600020905b81548152906001019060200180831161323457829003601f168201915b5050505050815260200190600101906131b9565b50505050915050919050565b60606000600260008473ffffffffffffffffffffffffffffffffffffffff1673ffffffffffffffffffffffffffffffffffffffff168152602001908152602001600020805480602002602001604051908101604052809291908181526020016000905b828210156133805783829060005260206000200180546132f390614da5565b80601f016020809104026020016040519081016040528092919081815260200182805461331f90614da5565b801561336c5780601f106133415761010080835404028352916020019161336c565b820191906000526020600020905b81548152906001019060200180831161334f57829003601f168201915b5050505050815260200190600101906132d4565b50505050905060008151141561340d57600067ffffffffffffffff8111156133d1577f4e487b7100000000000000000000000000000000000000000000000000000000600052604160045260246000fd5b60405190808252806020026020018201604052801561340457816020015b60608152602001906001900390816133ef5790505b5091505061369c565b6000805b82518110156134d157600080848381518110613456577f4e487b7100000000000000000000000000000000000000000000000000000000600052603260045260246000fd5b602002602001015160405161346b91906146dc565b908152602001604051809103902090508060030160149054906101000a900460ff161580156134a957508060060160009054906101000a900460ff16155b156134bd5782806134b990614dd7565b9350505b5080806134c990614dd7565b915050613411565b5060008167ffffffffffffffff811115613514577f4e487b7100000000000000000000000000000000000000000000000000000000600052604160045260246000fd5b60405190808252806020026020018201604052801561354757816020015b60608152602001906001900390816135325790505b5090506000805b845181101561369357600080868381518110613593577f4e487b7100000000000000000000000000000000000000000000000000000000600052603260045260246000fd5b60200260200101516040516135a891906146dc565b908152602001604051809103902090508060030160149054906101000a900460ff161580156135e657508060060160009054906101000a900460ff16155b1561367f57858281518110613624577f4e487b7100000000000000000000000000000000000000000000000000000000600052603260045260246000fd5b6020026020010151848481518110613665577f4e487b7100000000000000000000000000000000000000000000000000000000600052603260045260246000fd5b6020026020010181905250828061367b90614dd7565b9350505b50808061368b90614dd7565b91505061354e565b50819450505050505b919050565b60005b828054905081101561387a57816040516020016136c191906146dc565b60405160208183030381529060405280519060200120838281548110613710577f4e487b7100000000000000000000000000000000000000000000000000000000600052603260045260246000fd5b9060005260206000200160405160200161372a91906146f3565b60405160208183030381529060405280519060200120141561386757600183805490506137579190614ce7565b811461380c57826001848054905061376f9190614ce7565b815481106137a6577f4e487b7100000000000000000000000000000000000000000000000000000000600052603260045260246000fd5b906000526020600020018382815481106137e9577f4e487b7100000000000000000000000000000000000000000000000000000000600052603260045260246000fd5b906000526020600020019080546137ff90614da5565b61380a929190613906565b505b82805480613843577f4e487b7100000000000000000000000000000000000000000000000000000000600052603160045260246000fd5b60019003818190600052602060002001600061385f9190613993565b90555061387c565b808061387290614dd7565b9150506136a4565b505b5050565b82805461388c90614da5565b90600052602060002090601f0160209004810192826138ae57600085556138f5565b82601f106138c757805160ff19168380011785556138f5565b828001600101855582156138f5579182015b828111156138f45782518255916020019190600101906138d9565b5b50905061390291906139f4565b5090565b82805461391290614da5565b90600052602060002090601f0160209004810192826139345760008555613982565b82601f106139455780548555613982565b8280016001018555821561398257600052602060002091601f016020900482015b82811115613981578254825591600101919060010190613966565b5b50905061398f91906139f4565b5090565b50805461399f90614da5565b6000825580601f106139b157506139d0565b601f0160209004906000526020600020908101906139cf91906139f4565b5b50565b50805460008255906000526020600020908101906139f19190613a11565b50565b5b80821115613a0d5760008160009055506001016139f5565b5090565b5b80821115613a315760008181613a289190613993565b50600101613a12565b5090565b6000613a48613a4384614b99565b614b68565b9050808382526020820190508260005b85811015613a885781358501613a6e8882613b0f565b845260208401935060208301925050600181019050613a58565b5050509392505050565b6000613aa5613aa084614bc5565b614b68565b905082815260208101848484011115613abd57600080fd5b613ac8848285614d63565b509392505050565b600081359050613adf81614ebe565b92915050565b600082601f830112613af657600080fd5b8135613b06848260208601613a35565b91505092915050565b600082601f830112613b2057600080fd5b8135613b30848260208601613a92565b91505092915050565b600060208284031215613b4b57600080fd5b6000613b5984828501613ad0565b91505092915050565b600060208284031215613b7457600080fd5b600082013567ffffffffffffffff811115613b8e57600080fd5b613b9a84828501613b0f565b91505092915050565b60008060008060808587031215613bb957600080fd5b600085013567ffffffffffffffff811115613bd357600080fd5b613bdf87828801613b0f565b9450506020613bf087828801613ad0565b935050604085013567ffffffffffffffff811115613c0d57600080fd5b613c1987828801613b0f565b925050606085013567ffffffffffffffff811115613c3657600080fd5b613c4287828801613b0f565b91505092959194509250565b60008060408385031215613c6157600080fd5b600083013567ffffffffffffffff811115613c7b57600080fd5b613c8785828601613b0f565b925050602083013567ffffffffffffffff811115613ca457600080fd5b613cb085828601613ae5565b9150509250929050565b60008060008060808587031215613cd057600080fd5b600085013567ffffffffffffffff811115613cea57600080fd5b613cf687828801613b0f565b945050602085013567ffffffffffffffff811115613d1357600080fd5b613d1f87828801613b0f565b935050604085013567ffffffffffffffff811115613d3c57600080fd5b613d4887828801613b0f565b925050606085013567ffffffffffffffff811115613d6557600080fd5b613d7187828801613b0f565b91505092959194509250565b6000613d898383613e55565b905092915050565b613d9a81614d1b565b82525050565b6000613dab82614c1a565b613db58185614c48565b935083602082028501613dc785614bf5565b8060005b85811015613e035784840389528151613de48582613d7d565b9450613def83614c3b565b925060208a01995050600181019050613dcb565b50829750879550505050505092915050565b613e1e81614d2d565b82525050565b6000613e2f82614c25565b613e398185614c59565b9350613e49818560208601614d72565b80840191505092915050565b6000613e6082614c30565b613e6a8185614c64565b9350613e7a818560208601614d72565b613e8381614ead565b840191505092915050565b6000613e9982614c30565b613ea38185614c75565b9350613eb3818560208601614d72565b613ebc81614ead565b840191505092915050565b6000613ed282614c30565b613edc8185614c86565b9350613eec818560208601614d72565b80840191505092915050565b60008154613f0581614da5565b613f0f8186614c86565b94506001821660008114613f2a5760018114613f3b57613f6e565b60ff19831686528186019350613f6e565b613f4485614c05565b60005b83811015613f6657815481890152600182019150602081019050613f47565b838801955050505b50505092915050565b6000613f84601a83614c75565b91507f43726564656e7469616c20616c7265616479207265766f6b65640000000000006000830152602082019050919050565b6000613fc4601983614c75565b91507f49737375657220616c72656164792072656769737465726564000000000000006000830152602082019050919050565b6000614004601883614c75565b91507f4d657461646174612063616e6e6f7420626520656d70747900000000000000006000830152602082019050919050565b6000614044601e83614c75565b91507f46696c652f43726564656e7469616c20646f6573206e6f7420657869737400006000830152602082019050919050565b6000614084602083614c75565b91507f43726564656e7469616c20616c72656164792066756c6c79207265766f6b65646000830152602082019050919050565b60006140c4602083614c75565b91507f4d616e6461746f7279206669656c64732063616e6e6f7420626520656d7074796000830152602082019050919050565b6000614104600183614c86565b91507f2c000000000000000000000000000000000000000000000000000000000000006000830152600182019050919050565b6000614144601c83614c75565b91507f46696c65206e6f7420666f756e6420696e20757365722066696c6573000000006000830152602082019050919050565b6000614184601583614c75565b91507f4669656c6420616c7265616479207265766f6b656400000000000000000000006000830152602082019050919050565b60006141c4601883614c75565b91507f496e76616c6964207265636569766572206164647265737300000000000000006000830152602082019050919050565b6000614204601483614c75565b91507f46696c6520616c72656164792064656c657465640000000000000000000000006000830152602082019050919050565b6000614244602a83614c75565b91507f4f6e6c7920746865206973737565722063616e207265766f6b6520746869732060008301527f63726564656e7469616c000000000000000000000000000000000000000000006020830152604082019050919050565b60006142aa600183614c86565b91507f22000000000000000000000000000000000000000000000000000000000000006000830152600182019050919050565b60006142ea602f83614c75565b91507f4f6e6c792074686520636f6e7472616374206f776e65722063616e207065726660008301527f6f726d207468697320616374696f6e00000000000000000000000000000000006020830152604082019050919050565b6000614350602083614c75565b91507f46696c652f43726564656e7469616c20686173206265656e2064656c657465646000830152602082019050919050565b6000614390602083614c75565b91507f55706461746564206d657461646174612063616e6e6f7420626520656d7074796000830152602082019050919050565b60006143d0600183614c86565b91507f7d000000000000000000000000000000000000000000000000000000000000006000830152600182019050919050565b6000614410601683614c75565b91507f496e76616c6964206973737565722061646472657373000000000000000000006000830152602082019050919050565b6000614450602c83614c75565b91507f4f6e6c79207468652072656365697665722f6f776e65722063616e2064656c6560008301527f746520746869732066696c6500000000000000000000000000000000000000006020830152604082019050919050565b60006144b6601183614c75565b91507f496e76616c69642066696c6520686173680000000000000000000000000000006000830152602082019050919050565b60006144f6601a83614c75565b91507f43726564656e7469616c20616c72656164792064656c657465640000000000006000830152602082019050919050565b6000614536602f83614c75565b91507f4f6e6c7920617574686f72697a656420697373756572732063616e207065726660008301527f6f726d207468697320616374696f6e00000000000000000000000000000000006020830152604082019050919050565b600061459c601583614c75565b91507f496e76616c6964206e65772066696c65206861736800000000000000000000006000830152602082019050919050565b60006145dc601b83614c75565b91507f43726564656e7469616c20686173206265656e207265766f6b656400000000006000830152602082019050919050565b600061461c600983614c86565b91507f223a2276616c75652200000000000000000000000000000000000000000000006000830152600982019050919050565b61465881614d59565b82525050565b600061466a8284613e24565b9150614675826140f7565b915081905092915050565b600061468c8285613e24565b91506146978261429d565b91506146a38284613ec7565b91506146ae8261460f565b91508190509392505050565b60006146c68284613e24565b91506146d1826143c3565b915081905092915050565b60006146e88284613ec7565b915081905092915050565b60006146ff8284613ef8565b915081905092915050565b600060208201905061471f6000830184613d91565b92915050565b6000602082019050818103600083015261473f8184613da0565b905092915050565b600060208201905061475c6000830184613e15565b92915050565b60006080820190506147776000830187613e15565b6147846020830186613d91565b6147916040830185613d91565b81810360608301526147a38184613e8e565b905095945050505050565b600060208201905081810360008301526147c88184613e8e565b905092915050565b600060a08201905081810360008301526147ea8188613e8e565b90506147f96020830187613d91565b6148066040830186613d91565b614813606083018561464f565b81810360808301526148258184613e8e565b90509695505050505050565b6000606082019050818103600083015261484b8186613e8e565b9050818103602083015261485f8185613e8e565b905081810360408301526148738184613e8e565b9050949350505050565b600060408201905081810360008301526148978185613e8e565b90506148a6602083018461464f565b9392505050565b600060208201905081810360008301526148c681613f77565b9050919050565b600060208201905081810360008301526148e681613fb7565b9050919050565b6000602082019050818103600083015261490681613ff7565b9050919050565b6000602082019050818103600083015261492681614037565b9050919050565b6000602082019050818103600083015261494681614077565b9050919050565b60006020820190508181036000830152614966816140b7565b9050919050565b6000602082019050818103600083015261498681614137565b9050919050565b600060208201905081810360008301526149a681614177565b9050919050565b600060208201905081810360008301526149c6816141b7565b9050919050565b600060208201905081810360008301526149e6816141f7565b9050919050565b60006020820190508181036000830152614a0681614237565b9050919050565b60006020820190508181036000830152614a26816142dd565b9050919050565b60006020820190508181036000830152614a4681614343565b9050919050565b60006020820190508181036000830152614a6681614383565b9050919050565b60006020820190508181036000830152614a8681614403565b9050919050565b60006020820190508181036000830152614aa681614443565b9050919050565b60006020820190508181036000830152614ac6816144a9565b9050919050565b60006020820190508181036000830152614ae6816144e9565b9050919050565b60006020820190508181036000830152614b0681614529565b9050919050565b60006020820190508181036000830152614b268161458f565b9050919050565b60006020820190508181036000830152614b46816145cf565b9050919050565b6000602082019050614b62600083018461464f565b92915050565b6000604051905081810181811067ffffffffffffffff82111715614b8f57614b8e614e7e565b5b8060405250919050565b600067ffffffffffffffff821115614bb457614bb3614e7e565b5b602082029050602081019050919050565b600067ffffffffffffffff821115614be057614bdf614e7e565b5b601f19601f8301169050602081019050919050565b6000819050602082019050919050565b60008190508160005260206000209050919050565b600081519050919050565b600081519050919050565b600081519050919050565b6000602082019050919050565b600082825260208201905092915050565b600081905092915050565b600082825260208201905092915050565b600082825260208201905092915050565b600081905092915050565b6000614c9c82614d59565b9150614ca783614d59565b9250827fffffffffffffffffffffffffffffffffffffffffffffffffffffffffffffffff03821115614cdc57614cdb614e20565b5b828201905092915050565b6000614cf282614d59565b9150614cfd83614d59565b925082821015614d1057614d0f614e20565b5b828203905092915050565b6000614d2682614d39565b9050919050565b60008115159050919050565b600073ffffffffffffffffffffffffffffffffffffffff82169050919050565b6000819050919050565b82818337600083830152505050565b60005b83811015614d90578082015181840152602081019050614d75565b83811115614d9f576000848401525b50505050565b60006002820490506001821680614dbd57607f821691505b60208210811415614dd157614dd0614e4f565b5b50919050565b6000614de282614d59565b91507fffffffffffffffffffffffffffffffffffffffffffffffffffffffffffffffff821415614e1557614e14614e20565b5b600182019050919050565b7f4e487b7100000000000000000000000000000000000000000000000000000000600052601160045260246000fd5b7f4e487b7100000000000000000000000000000000000000000000000000000000600052602260045260246000fd5b7f4e487b7100000000000000000000000000000000000000000000000000000000600052604160045260246000fd5b6000601f19601f8301169050919050565b614ec781614d1b565b8114614ed257600080fd5b5056fea2646970667358221220a51163e4647b5ef31b6f08796bd680fcf7f0dbc8079a5c06e26399d5cd619e7664736f6c63430008000033",
  "linkReferences": {},
  "deployedLinkReferences": {}
}