{
  "_format": "hh-sol-artifact-1",
  "contractName": "FileStorage",
  "sourceName": "contracts/FileStorage.sol",
  "abi": [
    {
      "anonymous": false,
      "inputs": [
        {
          "indexed": false,
          "internalType": "string",
          "name": "fileHash",
          "type": "string"
        },
        {
          "indexed": true,
          "internalType": "address",
          "name": "owner",
          "type": "address"
        }
      ],
      "name": "FileDeleted",
      "type": "event"
    },
    {
      "anonymous": false,
      "inputs": [
        {
          "indexed": false,
          "internalType": "string",
          "name": "fileHash",
          "type": "string"
        },
        {
          "indexed": false,
          "internalType": "uint256",
          "name": "timestamp",
          "type": "uint256"
        },
        {
          "indexed": true,
          "internalType": "address",
          "name": "owner",
          "type": "address"
        }
      ],
      "name": "FileUploaded",
      "type": "event"
    },
    {
      "inputs": [
        {
          "internalType": "string",
          "name": "_fileHash",
          "type": "string"
        }
      ],
      "name": "deleteFile",
      "outputs": [],
      "stateMutability": "nonpayable",
      "type": "function"
    },
    {
      "inputs": [
        {
          "internalType": "string",
          "name": "_fileHash",
          "type": "string"
        }
      ],
      "name": "fileExists",
      "outputs": [
        {
          "internalType": "bool",
          "name": "",
          "type": "bool"
        }
      ],
      "stateMutability": "view",
      "type": "function"
    },
    {
      "inputs": [],
      "name": "getFileCount",
      "outputs": [
        {
          "internalType": "uint256",
          "name": "",
          "type": "uint256"
        }
      ],
      "stateMutability": "view",
      "type": "function"
    },
    {
      "inputs": [
        {
          "internalType": "string",
          "name": "_fileHash",
          "type": "string"
        }
      ],
      "name": "getFileOwner",
      "outputs": [
        {
          "internalType": "address",
          "name": "",
          "type": "address"
        }
      ],
      "stateMutability": "view",
      "type": "function"
    },
    {
      "inputs": [
        {
          "internalType": "string",
          "name": "_fileHash",
          "type": "string"
        }
      ],
      "name": "getFileTimestamp",
      "outputs": [
        {
          "internalType": "uint256",
          "name": "",
          "type": "uint256"
        }
      ],
      "stateMutability": "view",
      "type": "function"
    },
    {
      "inputs": [
        {
          "internalType": "address",
          "name": "_user",
          "type": "address"
        }
      ],
      "name": "getUserFiles",
      "outputs": [
        {
          "internalType": "string[]",
          "name": "",
          "type": "string[]"
        }
      ],
      "stateMutability": "view",
      "type": "function"
    },
    {
      "inputs": [
        {
          "internalType": "string",
          "name": "_fileHash",
          "type": "string"
        }
      ],
      "name": "uploadFile",
      "outputs": [],
      "stateMutability": "nonpayable",
      "type": "function"
    }
  ],
  "bytecode": "0x608060405234801561001057600080fd5b50611aa1806100206000396000f3fe608060405234801561001057600080fd5b506004361061007d5760003560e01c8063a99100541161005b578063a991005414610112578063bab50cc91461012e578063e37ffc301461014c578063f985275e146101685761007d565b80631fc379221461008257806338fa8f58146100b25780639bccd6ad146100e2575b600080fd5b61009c600480360381019061009791906111fb565b610198565b6040516100a9919061162c565b60405180910390f35b6100cc60048036038101906100c79190611224565b610584565b6040516100d99190611611565b60405180910390f35b6100fc60048036038101906100f79190611224565b61063d565b604051610109919061164e565b60405180910390f35b61012c60048036038101906101279190611224565b6106ef565b005b610136610ad9565b604051610143919061177b565b60405180910390f35b61016660048036038101906101619190611224565b610c98565b005b610182600480360381019061017d9190611224565b610f75565b60405161018f919061177b565b60405180910390f35b60606000600160008473ffffffffffffffffffffffffffffffffffffffff1673ffffffffffffffffffffffffffffffffffffffff168152602001908152602001600020805480602002602001604051908101604052809291908181526020016000905b828210156102a757838290600052602060002001805461021a9061193b565b80601f01602080910402602001604051908101604052809291908181526020018280546102469061193b565b80156102935780601f1061026857610100808354040283529160200191610293565b820191906000526020600020905b81548152906001019060200180831161027657829003601f168201915b5050505050815260200190600101906101fb565b50505050905060008151141561033457600067ffffffffffffffff8111156102f8577f4e487b7100000000000000000000000000000000000000000000000000000000600052604160045260246000fd5b60405190808252806020026020018201604052801561032b57816020015b60608152602001906001900390816103165790505b5091505061057f565b6000805b82518110156103d657600083828151811061037c577f4e487b7100000000000000000000000000000000000000000000000000000000600052603260045260246000fd5b602002602001015160405161039191906115e3565b908152602001604051809103902060020160149054906101000a900460ff166103c35781806103bf9061196d565b9250505b80806103ce9061196d565b915050610338565b5060008167ffffffffffffffff811115610419577f4e487b7100000000000000000000000000000000000000000000000000000000600052604160045260246000fd5b60405190808252806020026020018201604052801561044c57816020015b60608152602001906001900390816104375790505b5090506000805b8451811015610576576000858281518110610497577f4e487b7100000000000000000000000000000000000000000000000000000000600052603260045260246000fd5b60200260200101516040516104ac91906115e3565b908152602001604051809103902060020160149054906101000a900460ff1661056357848181518110610508577f4e487b7100000000000000000000000000000000000000000000000000000000600052603260045260246000fd5b6020026020010151838381518110610549577f4e487b7100000000000000000000000000000000000000000000000000000000600052603260045260246000fd5b6020026020010181905250818061055f9061196d565b9250505b808061056e9061196d565b915050610453565b50819450505050505b919050565b6000808260405161059591906115e3565b908152602001604051809103902060020160149054906101000a900460ff16156105f4576040517f08c379a00000000000000000000000000000000000000000000000000000000081526004016105eb9061173b565b60405180910390fd5b60008260405161060491906115e3565b908152602001604051809103902060020160009054906101000a900473ffffffffffffffffffffffffffffffffffffffff169050919050565b60008073ffffffffffffffffffffffffffffffffffffffff1660008360405161066691906115e3565b908152602001604051809103902060020160009054906101000a900473ffffffffffffffffffffffffffffffffffffffff1673ffffffffffffffffffffffffffffffffffffffff16141580156106e857506000826040516106c791906115e3565b908152602001604051809103902060020160149054906101000a900460ff16155b9050919050565b3373ffffffffffffffffffffffffffffffffffffffff1660008260405161071691906115e3565b908152602001604051809103902060020160009054906101000a900473ffffffffffffffffffffffffffffffffffffffff1673ffffffffffffffffffffffffffffffffffffffff161461079e576040517f08c379a0000000000000000000000000000000000000000000000000000000008152600401610795906116fb565b60405180910390fd5b6000816040516107ae91906115e3565b908152602001604051809103902060020160149054906101000a900460ff161561080d576040517f08c379a0000000000000000000000000000000000000000000000000000000008152600401610804906116db565b60405180910390fd5b600160008260405161081f91906115e3565b908152602001604051809103902060020160146101000a81548160ff0219169083151502179055506000600160003373ffffffffffffffffffffffffffffffffffffffff1673ffffffffffffffffffffffffffffffffffffffff168152602001908152602001600020905060005b8180549050811015610a9a57826040516020016108aa91906115e3565b604051602081830303815290604052805190602001208282815481106108f9577f4e487b7100000000000000000000000000000000000000000000000000000000600052603260045260246000fd5b9060005260206000200160405160200161091391906115fa565b604051602081830303815290604052805190602001201415610a87578160018380549050610941919061187d565b81548110610978577f4e487b7100000000000000000000000000000000000000000000000000000000600052603260045260246000fd5b906000526020600020018282815481106109bb577f4e487b7100000000000000000000000000000000000000000000000000000000600052603260045260246000fd5b906000526020600020019080546109d19061193b565b6109dc92919061100e565b5081805480610a14577f4e487b7100000000000000000000000000000000000000000000000000000000600052603160045260246000fd5b600190038181906000526020600020016000610a30919061109b565b90553373ffffffffffffffffffffffffffffffffffffffff167fb7f404dbaa1b2ab0528fd20ea00c12bcd6d8d8e57a5e63af5710d9031e62ef1f84604051610a789190611669565b60405180910390a25050610ad6565b8080610a929061196d565b91505061088d565b506040517f08c379a0000000000000000000000000000000000000000000000000000000008152600401610acd906116bb565b60405180910390fd5b50565b600080600160003373ffffffffffffffffffffffffffffffffffffffff1673ffffffffffffffffffffffffffffffffffffffff168152602001908152602001600020805480602002602001604051908101604052809291908181526020016000905b82821015610be7578382906000526020600020018054610b5a9061193b565b80601f0160208091040260200160405190810160405280929190818152602001828054610b869061193b565b8015610bd35780601f10610ba857610100808354040283529160200191610bd3565b820191906000526020600020905b815481529060010190602001808311610bb657829003601f168201915b505050505081526020019060010190610b3b565b5050505090506000805b8251811015610c8f576000838281518110610c35577f4e487b7100000000000000000000000000000000000000000000000000000000600052603260045260246000fd5b6020026020010151604051610c4a91906115e3565b908152602001604051809103902060020160149054906101000a900460ff16610c7c578180610c789061196d565b9250505b8080610c879061196d565b915050610bf1565b50809250505090565b6000815111610cdc576040517f08c379a0000000000000000000000000000000000000000000000000000000008152600401610cd39061175b565b60405180910390fd5b600073ffffffffffffffffffffffffffffffffffffffff16600082604051610d0491906115e3565b908152602001604051809103902060020160009054906101000a900473ffffffffffffffffffffffffffffffffffffffff1673ffffffffffffffffffffffffffffffffffffffff1614610dc057600081604051610d6191906115e3565b908152602001604051809103902060020160149054906101000a900460ff16610dbf576040517f08c379a0000000000000000000000000000000000000000000000000000000008152600401610db69061171b565b60405180910390fd5b5b60405180608001604052808281526020014281526020013373ffffffffffffffffffffffffffffffffffffffff16815260200160001515815250600082604051610e0a91906115e3565b90815260200160405180910390206000820151816000019080519060200190610e349291906110db565b506020820151816001015560408201518160020160006101000a81548173ffffffffffffffffffffffffffffffffffffffff021916908373ffffffffffffffffffffffffffffffffffffffff16021790555060608201518160020160146101000a81548160ff021916908315150217905550905050600160003373ffffffffffffffffffffffffffffffffffffffff1673ffffffffffffffffffffffffffffffffffffffff16815260200190815260200160002081908060018154018082558091505060019003906000526020600020016000909190919091509080519060200190610f219291906110db565b503373ffffffffffffffffffffffffffffffffffffffff167f787f9f72b4c348cf9330f605928c0e4a7ce2dc2c4fcfed70e3fa82d8b1dc84598242604051610f6a92919061168b565b60405180910390a250565b60008082604051610f8691906115e3565b908152602001604051809103902060020160149054906101000a900460ff1615610fe5576040517f08c379a0000000000000000000000000000000000000000000000000000000008152600401610fdc9061173b565b60405180910390fd5b600082604051610ff591906115e3565b9081526020016040518091039020600101549050919050565b82805461101a9061193b565b90600052602060002090601f01602090048101928261103c576000855561108a565b82601f1061104d578054855561108a565b8280016001018555821561108a57600052602060002091601f016020900482015b8281111561108957825482559160010191906001019061106e565b5b5090506110979190611161565b5090565b5080546110a79061193b565b6000825580601f106110b957506110d8565b601f0160209004906000526020600020908101906110d79190611161565b5b50565b8280546110e79061193b565b90600052602060002090601f0160209004810192826111095760008555611150565b82601f1061112257805160ff1916838001178555611150565b82800160010185558215611150579182015b8281111561114f578251825591602001919060010190611134565b5b50905061115d9190611161565b5090565b5b8082111561117a576000816000905550600101611162565b5090565b600061119161118c846117c7565b611796565b9050828152602081018484840111156111a957600080fd5b6111b48482856118f9565b509392505050565b6000813590506111cb81611a54565b92915050565b600082601f8301126111e257600080fd5b81356111f284826020860161117e565b91505092915050565b60006020828403121561120d57600080fd5b600061121b848285016111bc565b91505092915050565b60006020828403121561123657600080fd5b600082013567ffffffffffffffff81111561125057600080fd5b61125c848285016111d1565b91505092915050565b6000611271838361130c565b905092915050565b611282816118b1565b82525050565b60006112938261181c565b61129d818561183f565b9350836020820285016112af856117f7565b8060005b858110156112eb57848403895281516112cc8582611265565b94506112d783611832565b925060208a019950506001810190506112b3565b50829750879550505050505092915050565b611306816118c3565b82525050565b600061131782611827565b6113218185611850565b9350611331818560208601611908565b61133a81611a43565b840191505092915050565b600061135082611827565b61135a8185611861565b935061136a818560208601611908565b61137381611a43565b840191505092915050565b600061138982611827565b6113938185611872565b93506113a3818560208601611908565b80840191505092915050565b600081546113bc8161193b565b6113c68186611872565b945060018216600081146113e157600181146113f257611425565b60ff19831686528186019350611425565b6113fb85611807565b60005b8381101561141d578154818901526001820191506020810190506113fe565b838801955050505b50505092915050565b600061143b601c83611861565b91507f46696c65206e6f7420666f756e6420696e20757365722066696c6573000000006000830152602082019050919050565b600061147b601483611861565b91507f46696c6520616c72656164792064656c657465640000000000000000000000006000830152602082019050919050565b60006114bb602383611861565b91507f4f6e6c7920746865206f776e65722063616e2064656c6574652074686973206660008301527f696c6500000000000000000000000000000000000000000000000000000000006020830152604082019050919050565b6000611521601583611861565b91507f46696c6520616c72656164792075706c6f6164656400000000000000000000006000830152602082019050919050565b6000611561601583611861565b91507f46696c6520686173206265656e2064656c6574656400000000000000000000006000830152602082019050919050565b60006115a1601183611861565b91507f496e76616c69642066696c6520686173680000000000000000000000000000006000830152602082019050919050565b6115dd816118ef565b82525050565b60006115ef828461137e565b915081905092915050565b600061160682846113af565b915081905092915050565b60006020820190506116266000830184611279565b92915050565b600060208201905081810360008301526116468184611288565b905092915050565b600060208201905061166360008301846112fd565b92915050565b600060208201905081810360008301526116838184611345565b905092915050565b600060408201905081810360008301526116a58185611345565b90506116b460208301846115d4565b9392505050565b600060208201905081810360008301526116d48161142e565b9050919050565b600060208201905081810360008301526116f48161146e565b9050919050565b60006020820190508181036000830152611714816114ae565b9050919050565b6000602082019050818103600083015261173481611514565b9050919050565b6000602082019050818103600083015261175481611554565b9050919050565b6000602082019050818103600083015261177481611594565b9050919050565b600060208201905061179060008301846115d4565b92915050565b6000604051905081810181811067ffffffffffffffff821117156117bd576117bc611a14565b5b8060405250919050565b600067ffffffffffffffff8211156117e2576117e1611a14565b5b601f19601f8301169050602081019050919050565b6000819050602082019050919050565b60008190508160005260206000209050919050565b600081519050919050565b600081519050919050565b6000602082019050919050565b600082825260208201905092915050565b600082825260208201905092915050565b600082825260208201905092915050565b600081905092915050565b6000611888826118ef565b9150611893836118ef565b9250828210156118a6576118a56119b6565b5b828203905092915050565b60006118bc826118cf565b9050919050565b60008115159050919050565b600073ffffffffffffffffffffffffffffffffffffffff82169050919050565b6000819050919050565b82818337600083830152505050565b60005b8381101561192657808201518184015260208101905061190b565b83811115611935576000848401525b50505050565b6000600282049050600182168061195357607f821691505b60208210811415611967576119666119e5565b5b50919050565b6000611978826118ef565b91507fffffffffffffffffffffffffffffffffffffffffffffffffffffffffffffffff8214156119ab576119aa6119b6565b5b600182019050919050565b7f4e487b7100000000000000000000000000000000000000000000000000000000600052601160045260246000fd5b7f4e487b7100000000000000000000000000000000000000000000000000000000600052602260045260246000fd5b7f4e487b7100000000000000000000000000000000000000000000000000000000600052604160045260246000fd5b6000601f19601f8301169050919050565b611a5d816118b1565b8114611a6857600080fd5b5056fea2646970667358221220bd3d0fb2a6481c301c6d7b015f4b09e408533f886f2211c256433d030bfb5ca864736f6c63430008000033",
  "linkReferences": {},
  "deployedLinkReferences": {}
}